{
  "address": "0x5FbDB2315678afecb367f032d93F642f64180aa3",
  "abi": [
    {
      "inputs": [],
      "name": "Wallet__FailedToTransfer",
      "type": "error"
    },
    {
      "inputs": [],
      "name": "Wallet__ValueIsLessThanTotalAmounts",
      "type": "error"
    },
    {
      "inputs": [],
      "name": "Wallet__ValueShouldBeGreaterThanZero",
      "type": "error"
    },
    {
      "inputs": [],
      "name": "Wallet__ZeroBalance",
      "type": "error"
    },
    {
      "anonymous": false,
      "inputs": [
        {
          "indexed": true,
          "internalType": "address",
          "name": "previousOwner",
          "type": "address"
        },
        {
          "indexed": true,
          "internalType": "address",
          "name": "newOwner",
          "type": "address"
        }
      ],
      "name": "OwnershipTransferred",
      "type": "event"
    },
    {
      "inputs": [],
      "name": "deposit",
      "outputs": [],
      "stateMutability": "payable",
      "type": "function"
    },
    {
      "inputs": [
        {
          "internalType": "address",
          "name": "accountAddress",
          "type": "address"
        }
      ],
      "name": "getBalance",
      "outputs": [
        {
          "internalType": "uint256",
          "name": "",
          "type": "uint256"
        }
      ],
      "stateMutability": "view",
      "type": "function"
    },
    {
      "inputs": [],
      "name": "getContractBalance",
      "outputs": [
        {
          "internalType": "uint256",
          "name": "",
          "type": "uint256"
        }
      ],
      "stateMutability": "view",
      "type": "function"
    },
    {
      "inputs": [],
      "name": "owner",
      "outputs": [
        {
          "internalType": "address",
          "name": "",
          "type": "address"
        }
      ],
      "stateMutability": "view",
      "type": "function"
    },
    {
      "inputs": [],
      "name": "renounceOwnership",
      "outputs": [],
      "stateMutability": "nonpayable",
      "type": "function"
    },
    {
      "inputs": [
        {
          "internalType": "address[]",
          "name": "receivers",
          "type": "address[]"
        },
        {
          "internalType": "uint256[]",
          "name": "amounts",
          "type": "uint256[]"
        }
      ],
      "name": "transfer",
      "outputs": [],
      "stateMutability": "payable",
      "type": "function"
    },
    {
      "inputs": [
        {
          "internalType": "address",
          "name": "newOwner",
          "type": "address"
        }
      ],
      "name": "transferOwnership",
      "outputs": [],
      "stateMutability": "nonpayable",
      "type": "function"
    },
    {
      "inputs": [],
      "name": "withdraw",
      "outputs": [],
      "stateMutability": "nonpayable",
      "type": "function"
    }
  ],
  "transactionHash": "0xd76f86eade2ac48cd4aa8d0d485fe44599828bbf27ee97aaede49556d52c7549",
  "args": [],
  "numDeployments": 1,
  "solcInputHash": "7df3055c0aaa31f8e83b0341380fbb4c",
  "bytecode": "0x608060405234801561001057600080fd5b50600160008190555061003561002a61003a60201b60201c565b61004260201b60201c565b610108565b600033905090565b6000600160009054906101000a900473ffffffffffffffffffffffffffffffffffffffff16905081600160006101000a81548173ffffffffffffffffffffffffffffffffffffffff021916908373ffffffffffffffffffffffffffffffffffffffff1602179055508173ffffffffffffffffffffffffffffffffffffffff168173ffffffffffffffffffffffffffffffffffffffff167f8be0079c531659141344cd1fd0a4f28419497f9722a3daafe3b4186f6b6457e060405160405180910390a35050565b6111a4806101176000396000f3fe60806040526004361061007b5760003560e01c8063d0e30db01161004e578063d0e30db014610104578063f2fde38b1461010e578063f8b2cb4f14610137578063ffc3a769146101745761007b565b80633ccfd60b146100805780636f9fb98a14610097578063715018a6146100c25780638da5cb5b146100d9575b600080fd5b34801561008c57600080fd5b50610095610190565b005b3480156100a357600080fd5b506100ac61030a565b6040516100b99190610dfc565b60405180910390f35b3480156100ce57600080fd5b506100d7610312565b005b3480156100e557600080fd5b506100ee610326565b6040516100fb9190610d21565b60405180910390f35b61010c610350565b005b34801561011a57600080fd5b5061013560048036038101906101309190610b84565b6103e2565b005b34801561014357600080fd5b5061015e60048036038101906101599190610b84565b610466565b60405161016b9190610dfc565b60405180910390f35b61018e60048036038101906101899190610bb1565b6104af565b005b610198610717565b6000600260003373ffffffffffffffffffffffffffffffffffffffff1673ffffffffffffffffffffffffffffffffffffffff16815260200190815260200160002054905060008111610216576040517f483720f800000000000000000000000000000000000000000000000000000000815260040160405180910390fd5b6000600260003373ffffffffffffffffffffffffffffffffffffffff1673ffffffffffffffffffffffffffffffffffffffff1681526020019081526020016000208190555060003373ffffffffffffffffffffffffffffffffffffffff168260405161028190610d0c565b60006040518083038185875af1925050503d80600081146102be576040519150601f19603f3d011682016040523d82523d6000602084013e6102c3565b606091505b50509050806102fe576040517fa5f1298c00000000000000000000000000000000000000000000000000000000815260040160405180910390fd5b5050610308610767565b565b600047905090565b61031a610771565b61032460006107ef565b565b6000600160009054906101000a900473ffffffffffffffffffffffffffffffffffffffff16905090565b6000341161038a576040517fa0d73a6800000000000000000000000000000000000000000000000000000000815260040160405180910390fd5b34600260003373ffffffffffffffffffffffffffffffffffffffff1673ffffffffffffffffffffffffffffffffffffffff16815260200190815260200160002060008282546103d99190610ebb565b92505081905550565b6103ea610771565b600073ffffffffffffffffffffffffffffffffffffffff168173ffffffffffffffffffffffffffffffffffffffff16141561045a576040517f08c379a000000000000000000000000000000000000000000000000000000000815260040161045190610d9c565b60405180910390fd5b610463816107ef565b50565b6000600260008373ffffffffffffffffffffffffffffffffffffffff1673ffffffffffffffffffffffffffffffffffffffff168152602001908152602001600020549050919050565b6104b7610717565b600034116104f1576040517fa0d73a6800000000000000000000000000000000000000000000000000000000815260040160405180910390fd5b6000805b82518161ffff16101561054157828161ffff168151811061051957610518611019565b5b60200260200101518261052c9190610ebb565b9150808061053990610fbf565b9150506104f5565b503481111561057c576040517fab37f93600000000000000000000000000000000000000000000000000000000815260040160405180910390fd5b60005b83518161ffff161015610709576000848261ffff16815181106105a5576105a4611019565b5b602002602001015190506000848361ffff16815181106105c8576105c7611019565b5b602002602001015190506106116040518060400160405280601281526020017f526563656976657220416464726573733a200000000000000000000000000000815250836108b5565b6106506040518060400160405280600881526020017f416d6f756e743a2000000000000000000000000000000000000000000000000081525082610951565b60008273ffffffffffffffffffffffffffffffffffffffff168260405161067690610d0c565b60006040518083038185875af1925050503d80600081146106b3576040519150601f19603f3d011682016040523d82523d6000602084013e6106b8565b606091505b50509050806106f3576040517fa5f1298c00000000000000000000000000000000000000000000000000000000815260040160405180910390fd5b505050808061070190610fbf565b91505061057f565b5050610713610767565b5050565b6002600054141561075d576040517f08c379a000000000000000000000000000000000000000000000000000000000815260040161075490610ddc565b60405180910390fd5b6002600081905550565b6001600081905550565b6107796109ed565b73ffffffffffffffffffffffffffffffffffffffff16610797610326565b73ffffffffffffffffffffffffffffffffffffffff16146107ed576040517f08c379a00000000000000000000000000000000000000000000000000000000081526004016107e490610dbc565b60405180910390fd5b565b6000600160009054906101000a900473ffffffffffffffffffffffffffffffffffffffff16905081600160006101000a81548173ffffffffffffffffffffffffffffffffffffffff021916908373ffffffffffffffffffffffffffffffffffffffff1602179055508173ffffffffffffffffffffffffffffffffffffffff168173ffffffffffffffffffffffffffffffffffffffff167f8be0079c531659141344cd1fd0a4f28419497f9722a3daafe3b4186f6b6457e060405160405180910390a35050565b61094d82826040516024016108cb929190610d3c565b6040516020818303038152906040527f319af333000000000000000000000000000000000000000000000000000000007bffffffffffffffffffffffffffffffffffffffffffffffffffffffff19166020820180517bffffffffffffffffffffffffffffffffffffffffffffffffffffffff83818316178352505050506109f5565b5050565b6109e98282604051602401610967929190610d6c565b6040516020818303038152906040527fb60e72cc000000000000000000000000000000000000000000000000000000007bffffffffffffffffffffffffffffffffffffffffffffffffffffffff19166020820180517bffffffffffffffffffffffffffffffffffffffffffffffffffffffff83818316178352505050506109f5565b5050565b600033905090565b60008151905060006a636f6e736f6c652e6c6f679050602083016000808483855afa5050505050565b6000610a31610a2c84610e3c565b610e17565b90508083825260208201905082856020860282011115610a5457610a5361107c565b5b60005b85811015610a845781610a6a8882610afe565b845260208401935060208301925050600181019050610a57565b5050509392505050565b6000610aa1610a9c84610e68565b610e17565b90508083825260208201905082856020860282011115610ac457610ac361107c565b5b60005b85811015610af45781610ada8882610b6f565b845260208401935060208301925050600181019050610ac7565b5050509392505050565b600081359050610b0d81611140565b92915050565b600082601f830112610b2857610b27611077565b5b8135610b38848260208601610a1e565b91505092915050565b600082601f830112610b5657610b55611077565b5b8135610b66848260208601610a8e565b91505092915050565b600081359050610b7e81611157565b92915050565b600060208284031215610b9a57610b99611086565b5b6000610ba884828501610afe565b91505092915050565b60008060408385031215610bc857610bc7611086565b5b600083013567ffffffffffffffff811115610be657610be5611081565b5b610bf285828601610b13565b925050602083013567ffffffffffffffff811115610c1357610c12611081565b5b610c1f85828601610b41565b9150509250929050565b610c3281610f11565b82525050565b6000610c4382610e94565b610c4d8185610eaa565b9350610c5d818560208601610f5b565b610c668161108b565b840191505092915050565b6000610c7e602683610eaa565b9150610c898261109c565b604082019050919050565b6000610ca1602083610eaa565b9150610cac826110eb565b602082019050919050565b6000610cc4600083610e9f565b9150610ccf82611114565b600082019050919050565b6000610ce7601f83610eaa565b9150610cf282611117565b602082019050919050565b610d0681610f51565b82525050565b6000610d1782610cb7565b9150819050919050565b6000602082019050610d366000830184610c29565b92915050565b60006040820190508181036000830152610d568185610c38565b9050610d656020830184610c29565b9392505050565b60006040820190508181036000830152610d868185610c38565b9050610d956020830184610cfd565b9392505050565b60006020820190508181036000830152610db581610c71565b9050919050565b60006020820190508181036000830152610dd581610c94565b9050919050565b60006020820190508181036000830152610df581610cda565b9050919050565b6000602082019050610e116000830184610cfd565b92915050565b6000610e21610e32565b9050610e2d8282610f8e565b919050565b6000604051905090565b600067ffffffffffffffff821115610e5757610e56611048565b5b602082029050602081019050919050565b600067ffffffffffffffff821115610e8357610e82611048565b5b602082029050602081019050919050565b600081519050919050565b600081905092915050565b600082825260208201905092915050565b6000610ec682610f51565b9150610ed183610f51565b9250827fffffffffffffffffffffffffffffffffffffffffffffffffffffffffffffffff03821115610f0657610f05610fea565b5b828201905092915050565b6000610f1c82610f31565b9050919050565b600061ffff82169050919050565b600073ffffffffffffffffffffffffffffffffffffffff82169050919050565b6000819050919050565b60005b83811015610f79578082015181840152602081019050610f5e565b83811115610f88576000848401525b50505050565b610f978261108b565b810181811067ffffffffffffffff82111715610fb657610fb5611048565b5b80604052505050565b6000610fca82610f23565b915061ffff821415610fdf57610fde610fea565b5b600182019050919050565b7f4e487b7100000000000000000000000000000000000000000000000000000000600052601160045260246000fd5b7f4e487b7100000000000000000000000000000000000000000000000000000000600052603260045260246000fd5b7f4e487b7100000000000000000000000000000000000000000000000000000000600052604160045260246000fd5b600080fd5b600080fd5b600080fd5b600080fd5b6000601f19601f8301169050919050565b7f4f776e61626c653a206e6577206f776e657220697320746865207a65726f206160008201527f6464726573730000000000000000000000000000000000000000000000000000602082015250565b7f4f776e61626c653a2063616c6c6572206973206e6f7420746865206f776e6572600082015250565b50565b7f5265656e7472616e637947756172643a207265656e7472616e742063616c6c00600082015250565b61114981610f11565b811461115457600080fd5b50565b61116081610f51565b811461116b57600080fd5b5056fea2646970667358221220d72534a970f8084014f0d413c5644731866cd286022b14868cfd723654c9112e64736f6c63430008070033",
  "devdoc": {
    "author": "Ali Murtaza Memon",
    "custom:portfolio": "This is a portfolio smart contract.",
    "details": "This contract has an extra function contractWithdraw that only owner can use to withdrawn funds that accidentally store inside contract.",
    "kind": "dev",
    "methods": {
      "getBalance(address)": {
        "params": {
          "accountAddress": "of the user."
        },
        "returns": {
          "_0": "balance of user of type uint256 will be returned."
        }
      },
      "getContractBalance()": {
        "returns": {
          "_0": "balance of smart contract of type uint256 will be returned."
        }
      },
      "owner()": {
        "details": "Returns the address of the current owner."
      },
      "renounceOwnership()": {
        "details": "Leaves the contract without owner. It will not be possible to call `onlyOwner` functions anymore. Can only be called by the current owner. NOTE: Renouncing ownership will leave the contract without an owner, thereby removing any functionality that is only available to the owner."
      },
      "transfer(address[],uint256[])": {
        "details": "This function is using nonReentrant from Openzeppelin's ReentrancyGuard. This will lock our function until it will not complete.The length of addresses and amounts array should be equal.The sum of amounts should not be greater than the msg.value.example: If the msg.value will be let's say 4 ethers and we only tranfer 2 ethers to addresses then 2 ethers will store inside the contract address. This could be accidental state.",
        "params": {
          "amounts": "will be an array of amounts.",
          "receivers": "will be an array of addresses."
        }
      },
      "transferOwnership(address)": {
        "details": "Transfers ownership of the contract to a new account (`newOwner`). Can only be called by the current owner."
      },
      "withdraw()": {
        "details": "This function is using nonReentrant from Openzeppelin's ReentrancyGuard. This will lock our function until it will not complete."
      }
    },
    "title": "Wallet Smart Contract",
    "version": 1
  },
  "userdoc": {
    "kind": "user",
    "methods": {
      "deposit()": {
        "notice": "using deposit function any users can store their funds to their allocated mapping location."
      },
      "getBalance(address)": {
        "notice": "getBalance will return the balance information of users funds."
      },
      "getContractBalance()": {
        "notice": "contractBalance will return the balance information of a smart contract."
      },
      "transfer(address[],uint256[])": {
        "notice": "using transfer function users can transfer funds to address(s)."
      },
      "withdraw()": {
        "notice": "using withdraw function users can get back their funds."
      }
    },
    "notice": "This smart contract works as a bank, users can deposit, withdrawn and transfer funds to other addresses.",
    "version": 1
  },
  "storageLayout": {
    "storage": [
      {
        "astId": 123,
        "contract": "contracts/Wallet.sol:Wallet",
        "label": "_status",
        "offset": 0,
        "slot": "0",
        "type": "t_uint256"
      },
      {
        "astId": 7,
        "contract": "contracts/Wallet.sol:Wallet",
        "label": "_owner",
        "offset": 0,
        "slot": "1",
        "type": "t_address"
      },
      {
        "astId": 210,
        "contract": "contracts/Wallet.sol:Wallet",
        "label": "s_addressToFunds",
        "offset": 0,
        "slot": "2",
        "type": "t_mapping(t_address,t_uint256)"
      }
    ],
    "types": {
      "t_address": {
        "encoding": "inplace",
        "label": "address",
        "numberOfBytes": "20"
      },
      "t_mapping(t_address,t_uint256)": {
        "encoding": "mapping",
        "key": "t_address",
        "label": "mapping(address => uint256)",
        "numberOfBytes": "32",
        "value": "t_uint256"
      },
      "t_uint256": {
        "encoding": "inplace",
        "label": "uint256",
        "numberOfBytes": "32"
      }
    }
  }
}