{
  "address": "0x5FbDB2315678afecb367f032d93F642f64180aa3",
  "abi": [
    {
      "inputs": [],
      "name": "Wallet__FailedToTransfer",
      "type": "error"
    },
    {
      "inputs": [],
      "name": "Wallet__ValueIsLessThanTotalAmounts",
      "type": "error"
    },
    {
      "inputs": [],
      "name": "Wallet__ValueShouldBeGreaterThanZero",
      "type": "error"
    },
    {
      "inputs": [],
      "name": "Wallet__ZeroBalance",
      "type": "error"
    },
    {
      "anonymous": false,
      "inputs": [
        {
          "indexed": true,
          "internalType": "address",
          "name": "previousOwner",
          "type": "address"
        },
        {
          "indexed": true,
          "internalType": "address",
          "name": "newOwner",
          "type": "address"
        }
      ],
      "name": "OwnershipTransferred",
      "type": "event"
    },
    {
      "stateMutability": "payable",
      "type": "fallback"
    },
    {
      "inputs": [],
      "name": "deposit",
      "outputs": [],
      "stateMutability": "payable",
      "type": "function"
    },
    {
      "inputs": [
        {
          "internalType": "address",
          "name": "accountAddress",
          "type": "address"
        }
      ],
      "name": "getBalance",
      "outputs": [
        {
          "internalType": "uint256",
          "name": "",
          "type": "uint256"
        }
      ],
      "stateMutability": "view",
      "type": "function"
    },
    {
      "inputs": [],
      "name": "getContractBalance",
      "outputs": [
        {
          "internalType": "uint256",
          "name": "",
          "type": "uint256"
        }
      ],
      "stateMutability": "view",
      "type": "function"
    },
    {
      "inputs": [],
      "name": "owner",
      "outputs": [
        {
          "internalType": "address",
          "name": "",
          "type": "address"
        }
      ],
      "stateMutability": "view",
      "type": "function"
    },
    {
      "inputs": [],
      "name": "renounceOwnership",
      "outputs": [],
      "stateMutability": "nonpayable",
      "type": "function"
    },
    {
      "inputs": [
        {
          "internalType": "address[]",
          "name": "receivers",
          "type": "address[]"
        },
        {
          "internalType": "uint256[]",
          "name": "amounts",
          "type": "uint256[]"
        }
      ],
      "name": "transfer",
      "outputs": [],
      "stateMutability": "payable",
      "type": "function"
    },
    {
      "inputs": [
        {
          "internalType": "address",
          "name": "newOwner",
          "type": "address"
        }
      ],
      "name": "transferOwnership",
      "outputs": [],
      "stateMutability": "nonpayable",
      "type": "function"
    },
    {
      "inputs": [],
      "name": "withdraw",
      "outputs": [],
      "stateMutability": "nonpayable",
      "type": "function"
    },
    {
      "stateMutability": "payable",
      "type": "receive"
    }
  ],
  "transactionHash": "0x1466977c75883b90c05eec3500a42174a0c36a362a1365f365d033459725166e",
  "args": [],
  "numDeployments": 1,
  "solcInputHash": "30763e6d4353446afedeaf585e83f51a",
  "bytecode": "0x608060405234801561001057600080fd5b50600160008190555061003561002a61003a60201b60201c565b61004260201b60201c565b610108565b600033905090565b6000600160009054906101000a900473ffffffffffffffffffffffffffffffffffffffff16905081600160006101000a81548173ffffffffffffffffffffffffffffffffffffffff021916908373ffffffffffffffffffffffffffffffffffffffff1602179055508173ffffffffffffffffffffffffffffffffffffffff168173ffffffffffffffffffffffffffffffffffffffff167f8be0079c531659141344cd1fd0a4f28419497f9722a3daafe3b4186f6b6457e060405160405180910390a35050565b6111ac806101176000396000f3fe60806040526004361061007f5760003560e01c8063d0e30db01161004e578063d0e30db01461010c578063f2fde38b14610116578063f8b2cb4f1461013f578063ffc3a7691461017c57610086565b80633ccfd60b146100885780636f9fb98a1461009f578063715018a6146100ca5780638da5cb5b146100e157610086565b3661008657005b005b34801561009457600080fd5b5061009d610198565b005b3480156100ab57600080fd5b506100b4610312565b6040516100c19190610e04565b60405180910390f35b3480156100d657600080fd5b506100df61031a565b005b3480156100ed57600080fd5b506100f661032e565b6040516101039190610d29565b60405180910390f35b610114610358565b005b34801561012257600080fd5b5061013d60048036038101906101389190610b8c565b6103ea565b005b34801561014b57600080fd5b5061016660048036038101906101619190610b8c565b61046e565b6040516101739190610e04565b60405180910390f35b61019660048036038101906101919190610bb9565b6104b7565b005b6101a061071f565b6000600260003373ffffffffffffffffffffffffffffffffffffffff1673ffffffffffffffffffffffffffffffffffffffff1681526020019081526020016000205490506000811161021e576040517f483720f800000000000000000000000000000000000000000000000000000000815260040160405180910390fd5b6000600260003373ffffffffffffffffffffffffffffffffffffffff1673ffffffffffffffffffffffffffffffffffffffff1681526020019081526020016000208190555060003373ffffffffffffffffffffffffffffffffffffffff168260405161028990610d14565b60006040518083038185875af1925050503d80600081146102c6576040519150601f19603f3d011682016040523d82523d6000602084013e6102cb565b606091505b5050905080610306576040517fa5f1298c00000000000000000000000000000000000000000000000000000000815260040160405180910390fd5b505061031061076f565b565b600047905090565b610322610779565b61032c60006107f7565b565b6000600160009054906101000a900473ffffffffffffffffffffffffffffffffffffffff16905090565b60003411610392576040517fa0d73a6800000000000000000000000000000000000000000000000000000000815260040160405180910390fd5b34600260003373ffffffffffffffffffffffffffffffffffffffff1673ffffffffffffffffffffffffffffffffffffffff16815260200190815260200160002060008282546103e19190610ec3565b92505081905550565b6103f2610779565b600073ffffffffffffffffffffffffffffffffffffffff168173ffffffffffffffffffffffffffffffffffffffff161415610462576040517f08c379a000000000000000000000000000000000000000000000000000000000815260040161045990610da4565b60405180910390fd5b61046b816107f7565b50565b6000600260008373ffffffffffffffffffffffffffffffffffffffff1673ffffffffffffffffffffffffffffffffffffffff168152602001908152602001600020549050919050565b6104bf61071f565b600034116104f9576040517fa0d73a6800000000000000000000000000000000000000000000000000000000815260040160405180910390fd5b6000805b82518161ffff16101561054957828161ffff168151811061052157610520611021565b5b6020026020010151826105349190610ec3565b9150808061054190610fc7565b9150506104fd565b5034811115610584576040517fab37f93600000000000000000000000000000000000000000000000000000000815260040160405180910390fd5b60005b83518161ffff161015610711576000848261ffff16815181106105ad576105ac611021565b5b602002602001015190506000848361ffff16815181106105d0576105cf611021565b5b602002602001015190506106196040518060400160405280601281526020017f526563656976657220416464726573733a200000000000000000000000000000815250836108bd565b6106586040518060400160405280600881526020017f416d6f756e743a2000000000000000000000000000000000000000000000000081525082610959565b60008273ffffffffffffffffffffffffffffffffffffffff168260405161067e90610d14565b60006040518083038185875af1925050503d80600081146106bb576040519150601f19603f3d011682016040523d82523d6000602084013e6106c0565b606091505b50509050806106fb576040517fa5f1298c00000000000000000000000000000000000000000000000000000000815260040160405180910390fd5b505050808061070990610fc7565b915050610587565b505061071b61076f565b5050565b60026000541415610765576040517f08c379a000000000000000000000000000000000000000000000000000000000815260040161075c90610de4565b60405180910390fd5b6002600081905550565b6001600081905550565b6107816109f5565b73ffffffffffffffffffffffffffffffffffffffff1661079f61032e565b73ffffffffffffffffffffffffffffffffffffffff16146107f5576040517f08c379a00000000000000000000000000000000000000000000000000000000081526004016107ec90610dc4565b60405180910390fd5b565b6000600160009054906101000a900473ffffffffffffffffffffffffffffffffffffffff16905081600160006101000a81548173ffffffffffffffffffffffffffffffffffffffff021916908373ffffffffffffffffffffffffffffffffffffffff1602179055508173ffffffffffffffffffffffffffffffffffffffff168173ffffffffffffffffffffffffffffffffffffffff167f8be0079c531659141344cd1fd0a4f28419497f9722a3daafe3b4186f6b6457e060405160405180910390a35050565b61095582826040516024016108d3929190610d44565b6040516020818303038152906040527f319af333000000000000000000000000000000000000000000000000000000007bffffffffffffffffffffffffffffffffffffffffffffffffffffffff19166020820180517bffffffffffffffffffffffffffffffffffffffffffffffffffffffff83818316178352505050506109fd565b5050565b6109f1828260405160240161096f929190610d74565b6040516020818303038152906040527fb60e72cc000000000000000000000000000000000000000000000000000000007bffffffffffffffffffffffffffffffffffffffffffffffffffffffff19166020820180517bffffffffffffffffffffffffffffffffffffffffffffffffffffffff83818316178352505050506109fd565b5050565b600033905090565b60008151905060006a636f6e736f6c652e6c6f679050602083016000808483855afa5050505050565b6000610a39610a3484610e44565b610e1f565b90508083825260208201905082856020860282011115610a5c57610a5b611084565b5b60005b85811015610a8c5781610a728882610b06565b845260208401935060208301925050600181019050610a5f565b5050509392505050565b6000610aa9610aa484610e70565b610e1f565b90508083825260208201905082856020860282011115610acc57610acb611084565b5b60005b85811015610afc5781610ae28882610b77565b845260208401935060208301925050600181019050610acf565b5050509392505050565b600081359050610b1581611148565b92915050565b600082601f830112610b3057610b2f61107f565b5b8135610b40848260208601610a26565b91505092915050565b600082601f830112610b5e57610b5d61107f565b5b8135610b6e848260208601610a96565b91505092915050565b600081359050610b868161115f565b92915050565b600060208284031215610ba257610ba161108e565b5b6000610bb084828501610b06565b91505092915050565b60008060408385031215610bd057610bcf61108e565b5b600083013567ffffffffffffffff811115610bee57610bed611089565b5b610bfa85828601610b1b565b925050602083013567ffffffffffffffff811115610c1b57610c1a611089565b5b610c2785828601610b49565b9150509250929050565b610c3a81610f19565b82525050565b6000610c4b82610e9c565b610c558185610eb2565b9350610c65818560208601610f63565b610c6e81611093565b840191505092915050565b6000610c86602683610eb2565b9150610c91826110a4565b604082019050919050565b6000610ca9602083610eb2565b9150610cb4826110f3565b602082019050919050565b6000610ccc600083610ea7565b9150610cd78261111c565b600082019050919050565b6000610cef601f83610eb2565b9150610cfa8261111f565b602082019050919050565b610d0e81610f59565b82525050565b6000610d1f82610cbf565b9150819050919050565b6000602082019050610d3e6000830184610c31565b92915050565b60006040820190508181036000830152610d5e8185610c40565b9050610d6d6020830184610c31565b9392505050565b60006040820190508181036000830152610d8e8185610c40565b9050610d9d6020830184610d05565b9392505050565b60006020820190508181036000830152610dbd81610c79565b9050919050565b60006020820190508181036000830152610ddd81610c9c565b9050919050565b60006020820190508181036000830152610dfd81610ce2565b9050919050565b6000602082019050610e196000830184610d05565b92915050565b6000610e29610e3a565b9050610e358282610f96565b919050565b6000604051905090565b600067ffffffffffffffff821115610e5f57610e5e611050565b5b602082029050602081019050919050565b600067ffffffffffffffff821115610e8b57610e8a611050565b5b602082029050602081019050919050565b600081519050919050565b600081905092915050565b600082825260208201905092915050565b6000610ece82610f59565b9150610ed983610f59565b9250827fffffffffffffffffffffffffffffffffffffffffffffffffffffffffffffffff03821115610f0e57610f0d610ff2565b5b828201905092915050565b6000610f2482610f39565b9050919050565b600061ffff82169050919050565b600073ffffffffffffffffffffffffffffffffffffffff82169050919050565b6000819050919050565b60005b83811015610f81578082015181840152602081019050610f66565b83811115610f90576000848401525b50505050565b610f9f82611093565b810181811067ffffffffffffffff82111715610fbe57610fbd611050565b5b80604052505050565b6000610fd282610f2b565b915061ffff821415610fe757610fe6610ff2565b5b600182019050919050565b7f4e487b7100000000000000000000000000000000000000000000000000000000600052601160045260246000fd5b7f4e487b7100000000000000000000000000000000000000000000000000000000600052603260045260246000fd5b7f4e487b7100000000000000000000000000000000000000000000000000000000600052604160045260246000fd5b600080fd5b600080fd5b600080fd5b600080fd5b6000601f19601f8301169050919050565b7f4f776e61626c653a206e6577206f776e657220697320746865207a65726f206160008201527f6464726573730000000000000000000000000000000000000000000000000000602082015250565b7f4f776e61626c653a2063616c6c6572206973206e6f7420746865206f776e6572600082015250565b50565b7f5265656e7472616e637947756172643a207265656e7472616e742063616c6c00600082015250565b61115181610f19565b811461115c57600080fd5b50565b61116881610f59565b811461117357600080fd5b5056fea26469706673582212204936d676a329051fa2a159656f37c5064d29e89611ca639fbb163fc94d09b18964736f6c63430008070033",
  "devdoc": {
    "author": "Ali Murtaza Memon",
    "custom:portfolio": "This is a portfolio smart contract.",
    "details": "This contract has an extra function contractWithdraw that only owner can use to withdrawn funds that accidentally store inside contract.",
    "kind": "dev",
    "methods": {
      "getBalance(address)": {
        "params": {
          "accountAddress": "of the user."
        },
        "returns": {
          "_0": "balance of user of type uint256 will be returned."
        }
      },
      "getContractBalance()": {
        "returns": {
          "_0": "balance of smart contract of type uint256 will be returned."
        }
      },
      "owner()": {
        "details": "Returns the address of the current owner."
      },
      "renounceOwnership()": {
        "details": "Leaves the contract without owner. It will not be possible to call `onlyOwner` functions anymore. Can only be called by the current owner. NOTE: Renouncing ownership will leave the contract without an owner, thereby removing any functionality that is only available to the owner."
      },
      "transfer(address[],uint256[])": {
        "details": "This function is using nonReentrant from Openzeppelin's ReentrancyGuard. This will lock our function until it will not complete.The length of addresses and amounts array should be equal.The sum of amounts should not be greater than the msg.value.example: If the msg.value will be let's say 4 ethers and we only tranfer 2 ethers to addresses then 2 ethers will store inside the contract address. This could be accidental state.",
        "params": {
          "amounts": "will be an array of amounts.",
          "receivers": "will be an array of addresses."
        }
      },
      "transferOwnership(address)": {
        "details": "Transfers ownership of the contract to a new account (`newOwner`). Can only be called by the current owner."
      },
      "withdraw()": {
        "details": "This function is using nonReentrant from Openzeppelin's ReentrancyGuard. This will lock our function until it will not complete."
      }
    },
    "title": "Wallet Smart Contract",
    "version": 1
  },
  "userdoc": {
    "kind": "user",
    "methods": {
      "deposit()": {
        "notice": "using deposit function any users can store their funds to their allocated mapping location."
      },
      "getBalance(address)": {
        "notice": "getBalance will return the balance information of users funds."
      },
      "getContractBalance()": {
        "notice": "contractBalance will return the balance information of a smart contract."
      },
      "transfer(address[],uint256[])": {
        "notice": "using transfer function users can transfer funds to address(s)."
      },
      "withdraw()": {
        "notice": "using withdraw function users can get back their funds."
      }
    },
    "notice": "This smart contract works as a bank, users can deposit, withdrawn and transfer funds to other addresses.",
    "version": 1
  },
  "storageLayout": {
    "storage": [
      {
        "astId": 123,
        "contract": "contracts/Wallet.sol:Wallet",
        "label": "_status",
        "offset": 0,
        "slot": "0",
        "type": "t_uint256"
      },
      {
        "astId": 7,
        "contract": "contracts/Wallet.sol:Wallet",
        "label": "_owner",
        "offset": 0,
        "slot": "1",
        "type": "t_address"
      },
      {
        "astId": 210,
        "contract": "contracts/Wallet.sol:Wallet",
        "label": "s_addressToFunds",
        "offset": 0,
        "slot": "2",
        "type": "t_mapping(t_address,t_uint256)"
      }
    ],
    "types": {
      "t_address": {
        "encoding": "inplace",
        "label": "address",
        "numberOfBytes": "20"
      },
      "t_mapping(t_address,t_uint256)": {
        "encoding": "mapping",
        "key": "t_address",
        "label": "mapping(address => uint256)",
        "numberOfBytes": "32",
        "value": "t_uint256"
      },
      "t_uint256": {
        "encoding": "inplace",
        "label": "uint256",
        "numberOfBytes": "32"
      }
    }
  }
}